:020000040000FA
:040000009DEF3FF041
:107F260001002300450067008900AB00CD00EF008B
:107F360011002200260EF66E7F0EF76E000EF86E0A
:107F460000EE1BF010EE14F00900F5CFEEFFE55041
:107F5600E150FAE10001B0EF3FF020EE1BF010EE29
:107F660003F0130EDBCFE3FFE806FCE2000E186E0B
:107F7600000E176E000E1A6E000E196E1ABECDEFA9
:107F86003FF01A5009E10A0E195CD8A0CDEF3FF078
:107F9600CFEF3FF0D3EF3FF0F8EF3FF0F8EF3FF0D1
:107FA600D8901934D96E1A34DA6E030ED926000E1B
:107FB600DA22DECF01F0DDCF02F017500124176E72
:107FC60018500220186E194A1A2A1ABEF4EF3FF00A
:107FD6001A5009E10A0E195CD8A0F4EF3FF0F6EF4B
:107FE6003FF0D3EF3FF0F8EF3FF0000E936E17C06F
:0A7FF60081FFFEEF3FF000EF00F006
:020000040020DA
:08000000FFFFFFFFFFFFFFFF00
:020000040030CA
:0E0000000008191EFF0385FF0FC00FE00F4020
:00000001FF
