:020000040000FA
:0400000007EF00F016
:10000800028209ED00F036EF00F00600850ED76E8B
:10001800EE0ED66E81B613EF00F016EF00F0010E6B
:1000280017EF00F0000EFF0A016E01460146014677
:1000380081500118F70B0118816EF2940292110099
:100048000F0EC16E93968196020ED56E850ED76EF1
:10005800EE0ED66EF294F28AD58EF28E32EF00F062
:0E00680007EF00F002900292000124EF00F07A
:020000040020DA
:08000000FFFFFFFFFFFFFFFF00
:020000040030CA
:0E000000000C1F1EFF8181FF0FC00FE00F409C
:00000001FF
