:020000040000FA
:1000000058EF00F0000E046E000E036E2EEF00F0AD
:10001000000E066E000E056EC60E055C020E06583A
:10002000D8A015EF00F017EF00F01BEF00F02AEF5B
:1000300000F02AEF00F0054A062AC60E055C020E03
:100040000658D8A026EF00F028EF00F01BEF00F0D4
:100050002AEF00F0034A042A2EEF00F00150035C5F
:1000600002500458D8A037EF00F039EF00F008EF45
:1000700000F03BEF00F01200F19E0F0EC16E000E7B
:10008000956E43EF00F08368000E026EFA0E016E6B
:1000900002EC00F0000E836E000E026EFA0E016E8E
:1000A00002EC00F043EF00F043EF00F000EF00F04F
:0600B00000013CEF00F02E
:020000040020DA
:08000000FFFFFFFFFFFFFFFF00
:020000040030CA
:0E000000000C1F1EFF8181FF0FC00FE00F409C
:00000001FF
